:020000040800F2
:1000000028370020A5010008C74100083136000844
:10001000C5410008D5130008814900080000000010
:1000200000000000000000000000000005010008C2
:10003000E71400080000000049010008D141000851
:10004000BF010008BF010008BF010008BF01000890
:10005000BF010008BF010008BF010008BF01000880
:10006000BF010008BF010008BF010008BF01000870
:10007000A5140008B1140008BF010008BF01000862
:10008000BF010008BF010008BF010008BF01000850
:10009000BF010008BF010008BF010008BF01000840
:1000A000BF010008BF010008BF010008BF01000830
:1000B0005D420008BF01000869420008BF01000856
:1000C000BF010008BF010008BF010008BF01000810
:1000D000BF01000869490008BF0100087549000810
:1000E000E9140008BF010008BF010008DFF810D0C4
:1000F00000F056FF0048004781690008AFF3008018
:1001000028370020224B19680868B0E8F00F80F308
:100110000988BFF36F8F4FF0000080F311884EF015
:100120000D0E70470000000006480068006880F36C
:10013000088862B661B6BFF34F8FBFF36F8F00DFE1
:1001400000BF00BF08ED00E0EFF30980BFF36F8F41
:100150000F4B1A6820E9F00F106008B54FF05000FF
:1001600080F31188BFF34F8FBFF36F8F09F06AFFE1
:100170004FF0000080F31188BDE808401968086856
:10018000B0E8F00F80F30988BFF36F8F704700BFAE
:1001900014000020EFF305807047000040BA70475C
:1001A00040BA70470648804706480047FEE7FEE72A
:1001B000FEE7FEE7FEE7FEE7FEE7FEE7FEE7FEE717
:1001C0005B420008ED000008202A04DB203A21FAF7
:1001D00002F00021704721FA02F3D040C2F1200260
:1001E0009140084319467047A0F14101192900D8F0
:1001F0002030704740EA01039B0703D009E008C99B
:10020000121F08C0042AFAD203E011F8013B00F8DB
:10021000013B521EF9D27047D2B201E000F8012B27
:10022000491EFBD270470022F6E710B513460A4676
:1002300004461946FFF7F0FF204610BD30B50546CD
:100240002A460B4612F8010B13F8014B08B1A042E5
:10025000F8D01CB1002802D06D1CF1E7284630BD53
:1002600010B5044604E00B7800F8013B03B1491CCB
:10027000521EF8D2204610BD421C10F8011B002966
:10028000FBD1801A704710B5002200E0521C835C3D
:100290008C5CA34201D1002BF8D1D8B2E1B2401A54
:1002A00010BD034611F8012B00F8012B002AF9D1EB
:1002B0001846704730B505460020034600E05B1C39
:1002C000934205D2EC5CC85C201A01D1002CF6D117
:1002D00030BD00000FB400B58DB010A909900B908F
:1002E00000914FF0FF300A9000200C9005480690D6
:1002F000054807906A4609A80F9900F007FC0DB061
:100300005DF814FB290B0008470B00082DE9FF5F7F
:10031000D2E901A74FF00008916999461446DDF82B
:1003200038B0464601988847054659EA0B0005D083
:1003300009E0A169761C019888470546216A28468C
:1003400088470028F5D1681C03D05FEACA7005D041
:1003500015E04FF0FF3004B0BDE8F09F2068011DAC
:100360002160D0F800800AE05FEACA7001D108F885
:10037000015BA169761C7F1E019888470546002F06
:100380001ADD681C18D0B9F1000F0DD0E81705EB85
:10039000D060421120F01F0059F822102A1A0120C3
:1003A00090400142E0D107E0BBF1000FDCD1216AAF
:1003B000284688470028D7D0E16901988847BBF1D3
:1003C000000F07D1002E05DD5FEACA7002D10021BF
:1003D00088F80010A068B84203DDBBF1000F03D01D
:1003E00017B16FF00100B6E73046B4E72DE9FF4FD3
:1003F000087883B09946FF2805D0491C2D2804D0E1
:100400000024002008E000200BE00124F9E700EBC5
:10041000800003EB4000491C0B78FF2BF7D104B19F
:10042000404200230293147819461D462D2C01D01A
:100430002B2C04D1521C2D2C13D000240294AA463C
:100440001478FF2C0FD00A25A3FB057801FB05814A
:100450004FF0000C03FB0C11521CE3194AEB010195
:10046000EEE70124EAE7814453EA010002D019F5DE
:10047000C87F06DA03980021C0E9001107B0BDE883
:10048000F08F0025AE4E2F46DFF8B882184600F0F8
:1004900047FDCDE90001B9F1000002DAC9F100041D
:1004A00000E004460023A74A1AEB030B42EB045A70
:1004B00012E0E00707D02A4633463846414600F0AE
:1004C0004EFC074688462A4633461046194600F039
:1004D00046FC05460E466410002CEAD1DDE9000119
:1004E000B9F1000F5A46534606DA00F0AAFC3A4624
:1004F000434600F0A6FC05E000F031FC3A464346D6
:1005000000F02DFC029A0AB181F00041039AC2E981
:100510000001B3E72DE9FF4F1F468DB0D7E9014633
:100520004FF0FF382E2045464FF000090B90B96977
:100530006D1C0E988847396A824688470028F6D194
:10054000BAF1FF3F0AD024F4D064002E11DDBAF1D5
:100550002B0F08D0BAF12D0F0BD102E0404611B09D
:100560008DE744F48064B9696D1C0E988847824613
:10057000761E6946600501D52D2000E02B208DF800
:10058000000001F1010B0DF1200809E0B9696D1CB3
:100590000E98884782460F9844F40074761E0560D2
:1005A000002E02DDBAF1300FF0D00B998A453ED112
:1005B00044F0800406E00F99681CA9F1010944F495
:1005C00000740860B9696D1C761E0E9888478246D3
:1005D0003028F0D02BE00B998A4505D1200603D4B2
:1005E00044F08004761E18E0504604F045FB08B342
:1005F0000DF11301761E44F400748B4508D2AAF164
:1006000030000BF8010B200607D5A9F1010003E02B
:10061000200602D409F101008146A00502D50F99F8
:10062000681C0860B9696D1C0E9888478246002EC8
:10063000D1DC53E0002E51DDBAF1650F02D0BAF1E2
:10064000450F4BD1A00549D5B9696D1C24F4407400
:10065000761E0E9888478246002E0CDD2B2804D08B
:10066000BAF12D0F07D144F48074B9696D1C0E984E
:1006700088478246761EE00501D52D2100E02B211A
:1006800008F8011BCDF82C8021E00DF12901761E20
:1006900044F4007488450CD2AAF1300010F0FF0039
:1006A00088F8000002D10B99884509D908F10108A2
:1006B00006E0E00501D5244801E042F20F708146D2
:1006C000B9696D1C0E98884782460F980560002E08
:1006D00004DD504604F0D0FA0028D6D1F9690E980E
:1006E0008847FF208BF8000088F800000020069063
:1006F00007904B466A4608A906A8FFF777FEA005B3
:1007000002D46FF001002AE714F0240F0AD0E007AA
:1007100014D1DDE906123868031D3B600068C0E9AA
:1007200000120BE0DDE9060100F01EFC0146E007C7
:1007300004D13868021D3A600068016028460EE75F
:10074000000014400000F03FF1D8FFFF2DE9F04712
:1007500091460F4680460446002614F8015B2DB1F1
:1007600000F0C0F90068405DC007F6D12B2D02D023
:100770002D2D18D0641E4A463946204600F0F4F963
:1007800027B13968A14201D1C7F8008071054FF047
:1007900002040BD54042002803DD04F041F9046057
:1007A000A007BDE8F08746F48066E4E70028F8DAA1
:1007B00004F036F904606FF00040F2E72DE9FE4FD7
:1007C000804681EA0300C00F0C46009021F00041F2
:1007D00023F00045B8EB0200A94105D2404621466E
:1007E00090461C460B46024623F00040104347D07B
:1007F000270DC7F30A00C3F30A510290401A019073
:1008000040286BDAC3F3130040F4801B0098924633
:1008100020B10023D2EB030A63EB0B0B019859467E
:10082000C0F14002504600F03CF906460D465046E5
:100830005946019A00F044F910EB08006141002488
:1008400087EA115284EAE7731A4340D0009A62B3F0
:10085000019A012A4FEA075215DC001B61EB0201E5
:100860004FF0004202EA0752CDE90042001C41F578
:10087000801132462B4600F024FA03B0BDE8F08F19
:1008800040462146F9E7001B61EB0201001C41F5DF
:10089000801300185B412018A2F5001747EB0301F5
:1008A00040EAD570B6196D4111E06D084FEA360681
:1008B00045EAC0754FEA0752001B61EB0201001CBC
:1008C00041F5801149084FEA300000195141324684
:1008D0002B4603B0BDE8F04F00F0E4B900980122C8
:1008E00040000023D0EB020263EBE0730098214646
:1008F0004FEAE074B8EB000061EB0401E9E783F034
:1009000000435BE781F0004158E770B521F00043F8
:1009100003430CD0C1F30A550024D5EB040564EB66
:100920000403D617AD1AB34102DB0020014670BDA7
:10093000201841EB025170BD0EB5C10F80EAE07086
:100940000844CA07002140F233438DE80E000A46EE
:100950000B4600F0B6F903B000BD0EB540F23341CE
:1009600002910021CDE900110A460B4600F0A9F9D9
:1009700003B000BD70B5C1F30A5201F00045002478
:10098000C1F3130140F2FF3341F480119A4201DABE
:10099000002070BD40F233439A42A2F2334203DC9E
:1009A0005242FFF711FC00E090402C43F1D040424E
:1009B00070BD000030B5041E71F1000404DB4FF07F
:1009C0000044404264EB0101141E73F1000405DB96
:1009D0001C464FF00043524263EB04038B4208BFB6
:1009E000824230BD30B5041E71F1000404DB4FF0CB
:1009F0000044404264EB0101141E73F1000405DB66
:100A00001C464FF00043524263EB0403994208BF77
:100A1000904230BD30B50B46014600202022012413
:100A200009E021FA02F59D4205D303FA02F5491BBC
:100A300004FA02F52844151EA2F10102F1DC30BDD2
:100A40002DE9F05F0546002092469B468846064603
:100A5000814640241BE02846414647462246FFF790
:100A6000B3FB53465A46C01A914110D3114618465B
:100A7000224600F016F82D1A67EB01084F46224671
:100A80000120002100F00DF817EB00094E41201E57
:100A9000A4F10104DFDC484631462A464346BDE85E
:100AA000F09F202A04DB203A00FA02F10020704770
:100AB0009140C2F1200320FA03F31943904070479C
:100AC000202A06DBCB17203A41FA02F043EAE07312
:100AD00006E041FA02F3D040C2F1200291400843FF
:100AE000194670470048704764B4000810B50446C2
:100AF000FFF7F8FF0068005D00F0010010BD000086
:100B0000026811441378016018467047D1600449A7
:100B100051610449116200211161114600F060BA6F
:100B2000010B0008ED0A0008426842B1016811F8A3
:100B3000013B23B1521EC0E9001218467047012143
:100B4000C160881E704742685AB1C368016843B9E2
:100B500083688B4205D0491E521CC0E90012002058
:100B600070474FF0FF3070472DE9F05F8246007804
:100B7000002715468B460AF10104B946302801D0FA
:100B80009DB113E014F8010B0127782803D05828F1
:100B900001D045B10AE00DB1102D07D10027102575
:100BA00014F8010B02E0082500E00A250026B046F3
:100BB0000EE005FB080005FB06F1012701EB1046DE
:100BC0001FFA80F8B6F5803F00D3B94614F8010B40
:100BD000294600F0F7F90028EBDABBF1000F05D049
:100BE0000FB1641E00E05446CBF80040B9F1000F8D
:100BF00006D003F015FF02210160C81EBDE8F09F7A
:100C000048EA0640FAE700000FB4002300B589B0B7
:100C10000CA900910B996FF00042CB601E4B06931C
:100C20001E4B07930423CDE901321D4A0892024668
:100C30006B460020FFF76EFC09B05DF814FB70B541
:100C400086B006464FF0FF300091CDE9010100204B
:100C500015460C4604903246694604A8FFF7D4FFB7
:100C600002460498211825B108B1084600E0204644
:100C70002860049800280DD0002A02DD00988842E0
:100C800008D0081B0094CDE901043246694604A847
:100C9000FFF7BAFF06B070BD290B0008470B00082C
:100CA000ED0A000810B5141E73F1000408DA401CA8
:100CB00041F1000192185B411A4301D120F001007B
:100CC00010BD2DE9F04D92469B4611B1B1FA81F26B
:100CD00002E0B0FA80F220329046FFF7E2FE0446CE
:100CE0000F4640EA0A0041EA0B0153465A460843C0
:100CF00013D0114653EA010019D0C8F14002504602
:100D0000FFF762FA05460E46504659464246FFF73F
:100D1000C8FE084305D0012004E020463946BDE85E
:100D2000F08D0020054346EAE0762C4337430A98CD
:100D30006305E40AA0EB08000022FD0A44EA4754D8
:100D40000A3002D500200146E9E701051019694182
:100D5000DDE9084500196941BDE8F04DA2E72DE93C
:100D6000FE4F81EA030404F0004421F000410094A6
:100D70004FF0000B23F0004350EA01045ED052EA2A
:100D800003045BD0C3F30A54C1F30A552C44A4F204
:100D9000F3340194A0FB0254C1F3130141F4801118
:100DA000C3F3130343F4801301FB024400FB034E1F
:100DB000840A970A44EA815447EA8357A4FB0768E8
:100DC00002958D0A05FB07854FEA932C04FB0C5412
:100DD0002705029D4FEA065847EA1637B5EB080586
:100DE0006EEB070C870E920E47EA811742EA8312D8
:100DF000A7FB0201B6EB0B0164EB00042B0D43EAE9
:100E00000C335E1844EB1C50DA465146E7FB0201F6
:100E1000C5F313044FEA0B3343EA14534FEA043289
:100E2000019C43EA0603A4F10C040294009CCDE962
:100E300000B4FFF746FF03B0BDE8F08F0020014685
:100E4000F9E72DE9F04D81EA030404F0004B21F0AD
:100E5000004514464FF0000A23F0004150EA050215
:100E600020D054EA01021DD0C5F30A570246C5F34B
:100E70001303C1F31300C1F30A5640F4801543F481
:100E80008013A7EB0608101BD64608F2FD3873EB5B
:100E9000050002D308F1010801E092185B41B8F1A6
:100EA000000F03DA00200146BDE8F08D00204FF46A
:100EB0008011064684460EE0171B73EB050705D329
:100EC000121B63EB050306434CEA010C49084FEA89
:100ED000300092185B4150EA0107EDD152EA03005D
:100EE00012D082EA040083EA0501084305D0101BF2
:100EF000AB4106D20122002306E000224FF000435E
:100F000002E06FF0010253101AEB06004CEB08519F
:100F100010EB0A0041EB0B01BDE8F04DFFF7C2BE3C
:100F20000EB540F2334202920022CDE90022134670
:100F3000FFF7C7FE03B000BDC1F30A52C1F31301AE
:100F400040F2FF3341F480119A4202DA0020014658
:100F5000704740F233439A42A2F2334202DC5242DB
:100F6000FFF732B9FFF79DBD01F0004330B421F027
:100F7000004150EA010206D00A0DA2F56072C1F3E9
:100F80001301002A02DC30BC00207047440F44EA01
:100F9000C104C100E01830BC00EBC25000F0B8B989
:100FA000064C074D06E0E06840F0010394E80700B6
:100FB00098471034AC42F6D3FFF79CF874B400089D
:100FC00094B400083A2800D2303820F02002412A98
:100FD00001D3A2F13700884201D34FF0FF307047B0
:100FE0002DE9F34F8BB04FF0000801F10C000C46D7
:100FF0004FF0010B46460DF1080A0190626901218C
:1010000001989047051E2DD0252D2CD0216A8847A8
:10101000C0B16269012101989047216A8847002880
:10102000F7D1411E62690198904700E0761CA169E2
:101030000B988847216A88470028F7D1E1690B9807
:101040008847DBE7A1690B9888470746A84201D18A
:10105000761CD3E7E1690B9888477F1C02D1B8F171
:10106000000F6FD047E1002762693D46394601987D
:1010700090472A2804D162690121019890470125EF
:10108000DFF888926269012101989047A0F1300150
:101090000A290AD24F45E5DC07EB870100EB41073F
:1010A000303FDFD445F01005ECE7E90601D46FF0DE
:1010B00000476C280AD04C2814D0682815D06A281C
:1010C0000DD074281CD07A281AD01DE06269012145
:1010D000019890476C2802D045F0040514E045F0D3
:1010E00002050DE045F020050AE062690121019842
:1010F0009047682802D045F0080505E045F40065F2
:101100006269012101989047C4E9015765283DD0E3
:1011100019DC58287AD00CDC452837D004DC252887
:1011200026D0412831D131E046282FD047282CD174
:101130002CE05B2877D0612828D063287CD06428F5
:1011400023D15AE0D1E06F2848D008DC66281DD0B2
:1011500067281BD0692821D06E2816D127E0702877
:1011600045D0732868D0752847D078280DD14DE038
:10117000A1690B988847054625283FF469AFE169C6
:101180000B9888476D1C3FF46AAFB4E023466A466B
:101190006FF001000B99FFF7BDF99FE045F04000AB
:1011A0006060A80723464FF0000236D43EE0E8070F
:1011B0007FF447AF2068011D21600068290501D533
:1011C00006701BE7290701D5068017E7A90703D595
:1011D000F117C0E9006111E706600FE745F0400034
:1011E0006060A80723464FF0080216D41EE040F6C0
:1011F0000E0125EA0100606016E045F040006060E5
:10120000A80723464FF00A0207D40FE045F040003C
:101210006060A80708D5234610226FF001000B99E3
:10122000AFF300805AE007E0234610226FF0010080
:101230000B99AFF3008051E04FF000094F464B4649
:10124000632802D05B2807D041E02079C00601D492
:101250000120A06001273AE06269012101989047CE
:101260005E2805D14FF0010962694946019890470F
:10127000216939B900210A46534643F82120491C07
:101280000829FADBB0B3216969B9C11700EBD16253
:1012900053110AEB830122F01F02821A01200B680E
:1012A000904003430B6062690121019890475D28DB
:1012B000E8D1B9F1000F09D00020514651F82020A3
:1012C000D24341F82020401C0828F7DB02AB22461D
:1012D00000976FF001000B99FFF718F800280CDA5F
:1012E000401C08D1BBF1000F05D04FF0FF300DB00E
:1012F000BDE8F08FFFE74046F9E7E90701D108F1C3
:10130000010806444FF0000B78E60000CCCCCC0C72
:101310000029A8BF7047401C490008BF20F0010009
:10132000704710B4B0FA80FC00FA0CF050EA0104E7
:1013300004BF10BC704749B1CCF1200421FA04F479
:1013400011FA0CF118BF012121430843A3EB0C0152
:10135000CB1D4FEA00614FEA102042BF002010BCB5
:10136000704700EBC35010440029A4BF10BC704765
:10137000401C490008BF20F0010010BC704770B548
:101380008C1810F8015B15F0070301D110F8013B30
:101390002A1106D110F8012B03E010F8016B01F8B7
:1013A000016B5B1EF9D12B0705D40023521E0DD40F
:1013B00001F8013BFAE710F8013BCB1A921C03E05D
:1013C00013F8015B01F8015B521EF9D5A142D8D395
:1013D000002070BDFEE7000038B511A003F0D2FA7E
:1013E0004FF47A7000902023144A15A1164808F093
:1013F00005FB0446114915A003F0C4FA54B91AA11B
:101400000E48FEF71BFF28B1BDE838400B4917A076
:1014100003F0B8BABDE838401BA003F0B3BA00002F
:101420004448543131207374617274204154205205
:10143000656164202E2E2E0D0A000000F428002085
:1014400048616E640D0A0000600200204448543177
:1014500031202020756172745F72785F627566203A
:1014600025730D0A000000004F4B00004448543122
:1014700031207374617274207375636365737320B4
:1014800025730D0A00000000444854313120737464
:10149000617274206661696C75726520212121205A
:1014A0000D0A0000014800F01FB9000034030020BD
:1014B000014800F019B90000F002002030B590F8A2
:1014C00040500124AC40C56B6C60046863604368A5
:1014D000102B036803D099600068C26030BD9A6029
:1014E0000068C16030BD70474FF4004000F006BB9B
:1014F00072B6FEE706490020C8610648016941F05E
:1015000004010161016941F040010161704700007F
:10151000C003002000200240064A0021D161064994
:101520000A6942F002020A614861086940F040001D
:1015300008617047C003002000200240044B0022D5
:10154000DA61044A136943F00103136101807047B3
:10155000C00300200020024014480022C168CB06CE
:10156000134904D5CA6942F00202CA611022C36855
:101570005B0705D5CB6943F00103CB6142F0040260
:10158000C369DB0707D0CB6943F00403CB61C169B2
:1015900021F00101C161A2F58071013901D0C26061
:1015A0007047C16921F00101C1617047002002400C
:1015B000C003002070B5054600F0A6FB0646114C9E
:1015C00009E0681C07D025B100F09EFB801BA842F3
:1015D00001D9032070BDE068C007F2D1E068800641
:1015E00001D52020E060E068C00605D4E069C007AE
:1015F00002D1E068400703D5FFF7AEFF012070BDC0
:10160000002070BD0020024010B590F8211000228B
:10161000022905D00421816380F82020012010BD1B
:1016200001680B6823F00E030B6001680B6823F060
:1016300001030B6090F84030C46B012101FA03F301
:10164000636080F8211080F82020104610BD000053
:1016500010B590F821100024022903D004218163E1
:1016600001243DE001680A6822F00E020A60016868
:101670000A6822F001020A601A4A0168914201D107
:10168000012121E0174A1432914201D110211BE0BF
:10169000144A2832914201D1891515E0114A3C3291
:1016A000914201D189140FE00E4A5032914202D189
:1016B0004FF4803108E00B4A6432914202D14FF47A
:1016C000801101E04FF08071064A083A5160012113
:1016D00080F82110002180F82010416B01B188476B
:1016E000204610BD080002402DE9F05FC16B0C6878
:1016F00001680B68D0F840C0042202FA0CF2494D90
:10170000DFF824A1494E4A4FDFF828B1DFF828E17D
:1017100022422CD05A072AD50A68920603D40A68B6
:1017200022F004020A600168A94201D1042219E0F2
:10173000514501D1402215E0B14202D14FF48062FF
:1017400010E0B94202D14FF480420BE0594502D17A
:101750004FF4802206E0714502D14FF4800201E08F
:101760004FF080622F4908394A60C16A3BE04FF070
:10177000020808FA0CF818EA040F4FF000094FF0BD
:10178000010235D05FEA837832D50B689B0605D419
:101790000B6823F00A030B6080F821200168A9423E
:1017A00001D1022219E0514501D1202215E0B142B8
:1017B00002D14FF4007210E0B94202D14FF400524E
:1017C0000BE0594502D14FF4003206E0714502D1D9
:1017D0004FF4001201E04FF00072124908394A60DC
:1017E00080F82090816A00291AD0BDE8F05F084790
:1017F000082505FA0CF5254212D01B0710D50B68F9
:1018000023F00E030B6090F84010C36B02FA01F155
:101810005960826380F8212080F82090016BE2E714
:10182000BDE8F09F080002401C000240300002406A
:1018300044000240580002406C00024030B528B31A
:1018400008C8134914221944B1FBF2F18900C1639D
:1018500010498163022141771A6843F6F0718A4387
:10186000D0E900142143D0E902452C432143046907
:1018700021434469214384692143114319600021B4
:101880004163012242770177084630BD012030BD17
:10189000F8FFFDBF0000024070B5044690F820003C
:1018A000002501280CD0012084F8200094F8216044
:1018B0000020012E06D084F820000225284670BDA5
:1018C000022070BD022684F82160A06320680668AB
:1018D00026F0010606602046FFF7F0FDE06A0028CA
:1018E0002068016802D041F00E0106E021F00401F9
:1018F00001602068016841F00A0101602068016808
:1019000041F001010160D9E770B5044600F0FCF92F
:101910000546601C02D004480078044400F0F4F945
:10192000401BA042FAD370BD040000202DE9F0470F
:10193000054626480F460126017E01290FD00121C8
:10194000814601762868DFF888804CF250340228FE
:1019500008D0A2462046FFF72DFEA8B131E00220B4
:10196000BDE8F0872046FFF725FE08BB0120FFF702
:10197000C1FD2046FFF71EFED8F81010064621F0E4
:101980000401C8F810101CE04FF0FF303860AC685C
:1019900011E02046FFF7C0FD5046FFF70BFED8F8D8
:1019A0001010060021F00201C8F8101001D03C60B0
:1019B00007E004F58064D5E9020100EB8120A04234
:1019C000E7D8002189F818103046C9E7C003002085
:1019D000002002400348016941F0800101610020BC
:1019E00070470000002002402DE9F05F07461C48C8
:1019F00088460024017E15461E46012909D0012192
:101A0000814601764CF2503A5046FFF7D3FD18B1AB
:101A100022E00220BDE8F09F012F02D0022F00D06B
:101A20000427D346DFF83CA0220128463146FEF7C2
:101A3000CBFB81B208EB4400FFF780FD5846FFF76F
:101A4000B9FDDAF8102022F00102CAF8102018B906
:101A5000641CE4B2BC42E7D3002289F81820D9E71D
:101A6000C003002000200240064900200A69120637
:101A700007D5054A4A60054A4A600969090600D542
:101A8000012070470020024023016745AB89EFCD5C
:101A900010B5B0F5004F13D10A490868401C086022
:101AA000032190FBF1F201FB1200002808D106A0EF
:101AB00002F068FF04F042F8BDE8104000F0A4BC5A
:101AC00010BD0000040100202A2A2A2A2A2A2A2AD4
:101AD0002A65787465726E20696E746572727570AD
:101AE0007420657261736520466C6173682073753C
:101AF00063636573732E0D0A00000000044910B57E
:101B00000A68024202D00860FFF7C2FF10BD000061
:101B1000140401402DE9F84FDFF8B8910024A9F131
:101B2000040B23460F2709F1040AABF1040EC9E0A8
:101B30000125A5402A40AA427DD1674ED1F804C0B4
:101B4000ACEB0608B44532D014DCBCF1030F3AD03C
:101B500009DCBCF1000F2AD0BCF1010F1CD0BCF194
:101B6000020F31D11DE0BCF1110F17D0BCF1120FE3
:101B70002AD119E0B8F5881F19D006DCB8F5803FE6
:101B800015D0B8F5801F1FD111E0B8F5001F0ED099
:101B9000B8F5041F18D10AE0CB6815E0CB681B1D0F
:101BA00012E0CB6808330FE0CB680C330CE08B6895
:101BB0002BB1012B4FF0080303D0456104E004234F
:101BC00002E0056100E00023FF2A01D8064601E09B
:101BD00000F104064FEA840501D9A5F12005D6F8E5
:101BE000008007FA05FC28EA0C0803FA05F548EA24
:101BF0000508C6F800804D68ED0062D5374DAE6926
:101C000046F00106AE61AD6924F0030605F001055A
:101C10000095334D06EB050CDCF80850A607360F8F
:101C200007FA06F825EA0805DFF8B880404503D131
:101C30004FF0000817E044E0DFF8AC80404502D1E7
:101C40004FF001080FE0DFF8A480404502D14FF0CB
:101C5000020808E0DFF89880404502D14FF0030801
:101C600001E04FF0040808FA06F848EA0508CCF845
:101C700008804D68D9F80060ED024D4601D5164345
:101C800000E096432E604D68DAF80060AD025546DC
:101C900001D5164300E096432E604D68DBF80060E6
:101CA000AD035D4601D5164300E096432E604D68B6
:101CB000DEF80060ED03754601D5164300E096435B
:101CC0002E60641C0D682A46E5407FF431AFBDE804
:101CD000F88F0000080401400000111000100240BD
:101CE0000000014000080140000C014000100140CC
:101CF000001401408068084000D0012070470AB1FC
:101D0000016170470904FBE70148806870470000E3
:101D10000400002070B5040025D094F83D00002593
:101D200020B984F83C50204600F076FA242084F84C
:101D30003D002068016821F0010101602068016810
:101D400041F4004101602068016821F40041016014
:101D500000F022FC4D4A6168914201D84C4900E0F4
:101D60004C49884201D2012070BD4B492368B0FB29
:101D7000F1F15E6826F03F060E435E6063689342B1
:101D800006D94FF4967359434FF47A73B1FBF3F1CC
:101D90002368491C1E6A26F03F06314319626168B8
:101DA000914210D84900401EB0FBF1F2521CC2F320
:101DB0000B02042A01D2042022E0B0FBF1F0401C07
:101DC000C0F30B001CE0A268F2B301EBC10303EB0C
:101DD0000116431EB3FBF6F35B1C43F480431B0563
:101DE00049D092B301EBC10202EB0111401EB0FBDE
:101DF000F1F0401CC0F30B0040F4804040F4004080
:101E00002168CA694CF6FF739A431043C861D4E94C
:101E1000071001432068026822F0C00211430160EC
:101E2000D4E9030101432068826848F2FF339A43F2
:101E300011438160D4E9050108432168CA6822F092
:101E4000FF021043C86001E00EE016E02068016860
:101E500041F0010101602564202084F83D002563E4
:101E600084F83E50002070BD01EB4106431EB3FBD9
:101E7000F6F35B1CB3E70120C2E701EB4101401E12
:101E8000B0FBF1F0401CC0F30B00B7E7A0860100E7
:101E900080841E0000093D0040420F002DE9F84FEC
:101EA0000025DDF82890984617468A460446009596
:101EB000FFF72AFF064694F83D0020287AD119231F
:101EC000012286492046009601F0BAFC0028F5D18F
:101ED00094F83C0001286DD0012084F83C00206873
:101EE0000168C90703D1016841F001010160206860
:101EF000016821F400610160222084F83D00102077
:101F000084F83E0025646762A4F82A80608D2085ED
:101F10007348E06233464A465146204601F0A0FB32
:101F200000287CD1208DDFF8BC81202768B10128F2
:101F300014D00228206801681ED041F4806101603D
:101F40002068416980690090BBE02068416981692F
:101F50000091016841F400710160B2E020680168FD
:101F600021F48061016072B6206841698169009145
:101F7000016841F400710AE041F40061016072B649
:101F80002068416981690091016821F480610160E4
:101F900062B696E0032865D801280CD002284B468B
:101FA0004FF000024146204600960BD001F048FC5D
:101FB000A8BB0CE090E032464946204601F0E6FC22
:101FC00068BB71E001F03CFC48BB72B633E02068AE
:101FD000016821F48061016072B620680069616A5D
:101FE0000870606A401C6062208D401E2085608DF4
:101FF000401E60853C4846F2A8110068B0FBF1F035
:10200000C0EBC00000EB80000090401E009007D0A5
:1020100020684069C04340070DD50098F5E727E0E8
:1020200044F8305F6773A573206940F02000206199
:1020300062B625731CE02068016841F400710160FC
:1020400020680069616A0870606A401C6062218DC6
:10205000491E2185618D491E618562B62168096925
:10206000017025E032464946204601F08FFC10B150
:102070000120BDE8F88F20680069616A0870606A15
:10208000401C6062208D401E81B22185608D401E03
:10209000608520684269D243520712D4032903D1D4
:1020A000016821F48061016020680069616A08703C
:1020B000606A401C6062208D401E2085608D401E3D
:1020C0006085208D00287FF465AF84F83D7084F82A
:1020D0003E5084F83C50CCE70220CAE702001000D2
:1020E0000000FFFF04000100100000202DE9F84F60
:1020F0001F4690468A460446DDF82890FFF704FE06
:10210000054694F83D0020287FD11923012240493B
:102110002046009501F094FB002876D194F83C000D
:10212000012872D0012084F83C0020680168C907AA
:1021300003D1016841F0010101602068016821F4C8
:1021400000610160212084F83D00102084F83E00E9
:1021500000262664C4F824806785608D20852D487C
:10216000E0622B464A465146204601F0EFFA90B90C
:10217000206841698069009036E02A464946204639
:1021800001F03CFC50B1206C042804D120680168A7
:1021900041F4007101600120BDE8F88F606A216898
:1021A00000780861606A401C6062618D491E61852B
:1021B000218D491E89B2218522685369DB435B0763
:1021C0000BD451B100781061606A401C6062608D70
:1021D000401E6085208D401E20852A4649462046A7
:1021E00001F002FB0028CED1208D0028C5D154F883
:1021F0003D0B016841F400710160202004F81E09C4
:10220000E67766770020C7E7FFE70220C4E7000013
:10221000020010000000FFFF10B586B00021009101
:1022200001910291039100680F4988421AD10F4C25
:10223000A06940F00800A061A069694600F00800AC
:102240000490C020009012200190032003900848C1
:10225000FFF760FCE06940F40010E061E06900F421
:102260000010049006B010BD005400400010024061
:10227000000C014002488168027811448160704777
:1022800004000020074810B5016841F0100101600A
:10229000032000F0A7F8082000F006F800F050F83E
:1022A000002010BD0020024030B50546204887B010
:1022B000C16941F00101C161C06906A900F00100D6
:1022C000009001A800F048F90498B8B100F064F952
:1022D000400018494FF08042B0FBF1F11648491E0A
:1022E0000260416040F2E7320021C0E903218160D1
:1022F000816100F05DFB040003D015E000F04CF9B3
:10230000E7E70D4800F0ACFB04000DD11C2000F005
:102310003BF8102D07D2002229461C2000F042F87D
:102320000648056000E0012407B0204630BD0000EB
:102330000010024040420F007803002008000020F7
:102340000F4808B5816941F001018161816901F09F
:1023500001010091C16941F08051C161C069002251
:1023600000F0805000900F21901E00F01BF80548EF
:10237000416821F0E06141F00071416008BD00005A
:102380000010024000000140002809DB00F01F029D
:10239000012191404009800000F1E020C0F80011C7
:1023A00070470000F0B40E4B1B680C46C3F30223C9
:1023B000C3F10705042D00D90425191D072901D2F1
:1023C000002300E0DB1E012606FA05F1491E21402C
:1023D00099409E40761E16403143F0BC02F010BB7F
:1023E0000CED00E0064900F0070208684FF6FF0315
:1023F000184040EA0220034A10430860704700007A
:102400000CED00E00000FA05BFF34F8F05480168AE
:10241000054A01F4E06111430160BFF34F8F00BF33
:10242000FDE700000CED00E00400FA052DE9F0479F
:102430000F46050061D0434E306800F00700B842F7
:1024400009D2306820F0070038433060306800F06F
:102450000700B84251D128683B4C810712D540078C
:1024600003D5606840F4E06060602878000703D519
:10247000606840F4605060606068A96820F0F00017
:10248000084360602878C00728D06868012810D009
:102490002168022810D0890700292EDA616821F00E
:1024A000030101436160FFF72FFC804641F2883948
:1024B0000DE021688903EFE78901EDE7FFF724FCD0
:1024C000A0EB0801494502D90320BDE8F087606808
:1024D000696800F00C00B0EB810FEFD1306800F0BC
:1024E0000700B8420BD9306820F00700384330604D
:1024F000306800F00700B84201D00120E5E72878F5
:10250000400705D56068E96820F4E0600843606032
:102510002878000706D56068296920F4605040EAF1
:10252000C100606000F058F86168084AC1F3031107
:10253000515CC8400649086006480068FFF7B4FED1
:102540000020C2E700200240001002406EAE0008EA
:1025500010000020080000200F2202600C4A53687F
:1025600003F003034360536803F0F0038360536890
:1025700003F4E063C36052684FF4E06303EAD202FD
:1025800002610448006800F007000860704700001E
:1025900000100240002002400448054900684968D4
:1025A000044AC1F30221515CC8407047100000206A
:1025B000001002407EAE00080448054900684968E2
:1025C000044AC1F3C221515CC8407047100000208A
:1025D000001002407EAE00080E4A51680E4801F01D
:1025E0000C03042B11D0082B0FD10C48C1F38343EB
:1025F000C903C05C0AD55168084AC1F34041921E24
:10260000515C054A5043B0FBF1F070470449484320
:10261000704700000010024000127A005EAE000811
:1026200000093D002DE9F84F040070D02078C04D1E
:10263000C00749D06868C0F38100012807D06868E6
:10264000C0F38100022809D16868C00306D5286854
:10265000800339D560680028E7D035E06068B0F5C0
:10266000803F0BD010B1B0F5A02F11D0286820F416
:1026700080302860286820F4802002E0286840F438
:1026800080302860606890B1FFF73EFB06460AE0A4
:10269000286840F480202860F0E700BFFFF734FB93
:1026A000801B642873D828688003F7D50CE0FFF7F7
:1026B0002BFB064605E000BFFFF726FB801B6428C6
:1026C000F0D828688003F7D420789A4E80074FF01E
:1026D00001094FF0000839D5686810F00C0F07D0D9
:1026E0006868C0F38100022809D16868C00306D475
:1026F0002868800714D52069012808D110E02069D6
:10270000B0B1C6F80090FFF7FFFA074605E00AE10E
:10271000FFF7FAFAC01B0228C4D828688007F7D54B
:102720002868616920F0F80040EAC10028600DE0E7
:10273000C6F80080FFF7E8FA074604E0FFF7E4FA7E
:10274000C01B022823D828688007F7D42078000708
:102750002CD57948A169D9B1C0F80090FFF7D4FA17
:10276000074604E0FFF7D0FAC01B02280FD8686ABA
:102770008007F7D571484FF4FA510068B0FBF1F0CB
:10278000009000BF0098411E0091FAD20EE080E058
:10279000C0F80080FFF7B8FA074604E0FFF7B4FA84
:1027A000C01B022875D8686A8007F7D420784007D4
:1027B00060D5E8690027C00008D4E86940F080507F
:1027C000E861E869012700F0805000905C480168EA
:1027D000C90513D40168834641F480710160FFF795
:1027E00093FA824606E000BFFFF78EFAA0EB0A00DC
:1027F00064284ED8DBF80000C005F5D5E068012854
:102800000AD008B1052813D0286A20F001002862F8
:10281000286A20F0040002E0286A40F001002862E3
:10282000E06841F2883B98B1FFF76EFA82460BE010
:10283000286A40F004002862EEE700BFFFF764FA60
:10284000A0EB0A0159455AD8286A8007F6D50CE052
:10285000FFF75AFA824605E0FFF756FAA0EB0A01A5
:1028600059454CD8286A8007F6D41FB1E86920F092
:102870008050E861E06988B36968C1F38101022989
:1028800044D00228C6F8608004D0FFF73DFA044621
:1028900038E034E0FFF738FA074604E0FFF734FA8F
:1028A000C01B02282BD828688001F7D4206AB0F515
:1028B000803F05D16868A16820F400300843686053
:1028C000D4E908010843696821F474110843686079
:1028D000C6F86090FFF718FA044606E025E000BF4E
:1028E000FFF712FA001B022809D828688001F7D5E3
:1028F0001BE000BFFFF708FA001B022802D90320E3
:10290000BDE8F88F28688001F4D40EE00128F7D0E4
:102910006868226A00F48031914204D1616A00F44F
:102920007010884201D00120EAE70020E8E70000AB
:102930000010024000004242800442421000002089
:10294000007000407047704770B590F83C20012A35
:1029500026D0012480F83C40022280F83D20036804
:102960005A689D6822F070060A6832435A600D4B1F
:1029700002689A4208D0B2F1804F05D00A4B9A42C1
:1029800002D00A4B9A4204D1496825F080031943CA
:10299000916080F83D40002180F83C10084670BDF1
:1029A000022070BD002C01400004004000080040DF
:1029B00010B5040003D094F83D0010B107E00120E9
:1029C00010BD002084F83C00204600F01FF80220D3
:1029D00084F83D00211D206801F04CFC012084F8A2
:1029E000460084F83E0084F83F0084F8400084F8F4
:1029F000410084F8420084F8430084F8440084F8DD
:102A0000450084F83D00002010BD000008B5114AC3
:102A100001681148914208D1C16941F00201C161C8
:102A2000C06900F00200009008BD0C4A9142FBD141
:102A3000C16941F00401C161C069002200F00400D5
:102A400000900F211E20FFF7ADFCBDE808401E20BE
:102A5000FFF79ABC0004004000100240000800404C
:102A600090F83D10012901D001207047022180F823
:102A70003D100168CA6842F00102CA6000680B4953
:102A8000884208D0B0F1804F05D00949884202D071
:102A90000849884204D1816801F00701062903D062
:102AA000016841F00101016000207047002C0140E5
:102AB00000040040000800400168CA6822F00102DA
:102AC000CA6001680A6A41F211131A4207D10A6A00
:102AD0009B101A4203D10A6822F001020A60012108
:102AE00080F83D100020704770B5044690F83C0017
:102AF0000025012817D0012684F83C60022084F8C4
:102B00003D002068826822F0770222F47F428260D2
:102B10000868502838D00DDC20284FD005DC90B351
:102B2000102811D14AE0022070BD302846D040283C
:102B30000AD13BE060282FD070280DD0B0F5805F1F
:102B400003D0B0F5005F12D0012584F83D6000206D
:102B500084F83C00284670BDCB68D1E9012120688B
:102B600001F0CBFB2068816841F0770109E0CB6878
:102B7000D1E90121206801F0C0FB2068816841F49F
:102B800080418160E1E719E0CA684968206801F086
:102B900069FC5021206806E0CA684968206801F095
:102BA00072FC6021206801F0B2FBCEE7CA68496878
:102BB000206801F057FC40212068F4E722680146B4
:102BC0001046F0E7704770B50446006801694FF0A1
:102BD0000005C943890715D4C168C943890711D4C1
:102BE000E91E016101202077206880698007204666
:102BF00002D0FFF7E7FF04E000F0C8F8204600F03D
:102C00005AF9257720680169C943490717D4C16873
:102C1000C943490713D46FF00401016102202077F2
:102C20002068806910F4407F204602D0FFF7CAFF79
:102C300004E000F0ABF8204600F03DF9257720686D
:102C40000169C943090716D4C168C943090712D4E9
:102C50006FF008010161042020772068C0698007B7
:102C6000204602D0FFF7AEFF04E000F08FF82046C8
:102C700000F021F9257720680169C943C90617D4F6
:102C8000C168C943C90613D46FF01001016108205F
:102C900020772068C06910F4407F204602D0FFF7FB
:102CA00091FF04E000F072F8204600F004F9257767
:102CB00020680169C943C90708D1C168C943C90768
:102CC00004D1891E0161204600F07CF92068016969
:102CD000C943090609D4C168C943090605D46FF080
:102CE000800101612046FFF72DFE20680169C9437C
:102CF000490609D4C168C943490605D46FF04001AB
:102D00000161204600F072F920680169C943890613
:102D10000BD4C168C943890607D46FF02001016153
:102D20002046BDE87040FFF70EBE70BD00B585B00F
:102D30000021009101910291039100680F4988429E
:102D40001AD10F48816941F00801816180696946A3
:102D500000F00800049010200090022001900390E1
:102D60000848FEF7D7FE0848416821F4406141F069
:102D7000E06141F40061416005B000BD0004004025
:102D800000100240000C014000000140704770B587
:102D9000044690F83C0000260D4601280FD0012083
:102DA00084F83C006AB1042A1DD0082A2FD00C2ACE
:102DB0003FD00126002084F83C00304670BD022040
:102DC00070BD206801F0ACFA2068816941F008010B
:102DD00081612068816921F0040181612068816935
:102DE0002A69114311E0206801F0C2FA2068816964
:102DF00041F4006181612068816921F48061816111
:102E0000206881692A6941EA02218161D2E720684C
:102E100001F0DAFA2068C16941F00801C161206857
:102E2000C16921F00401C1612068C1692A691143A7
:102E300011E0206801F0F4FA2068C16941F40061F2
:102E4000C1612068C16921F48061C1612068C169E4
:102E50002A6941EA0221C161ACE710B5040003D040
:102E600094F83D0010B107E0012010BD002084F867
:102E70003C00204600F01EF8022084F83D00211D91
:102E8000206801F0F7F9012084F8460084F83E003C
:102E900084F83F0084F8400084F8410084F8420040
:102EA00084F8430084F8440084F8450084F83D0029
:102EB000002010BD7047704710B50446022249B18A
:102EC00004290ED0082913D094F84100012816D007
:102ED000012010BD94F83E000128F9D184F83E206D
:102EE0000FE094F83F000128F2D184F83F2008E079
:102EF00094F840000128EBD184F8402001E084F8E8
:102F000041200122206801F0EBF90F492068884236
:102F100003D1426C42F4004242642068884208D0E7
:102F2000B0F1804F05D00949884202D00849884253
:102F300004D1816801F00701062903D0016841F03E
:102F400001010160002010BD002C01400004004080
:102F50000008004030B504460D460068002201F02C
:102F6000BFF9174B41F2111120688A10984209D11C
:102F7000036A0B4206D1036A134203D1436C23F464
:102F8000004343642068036A0B4206D1016A114280
:102F900003D1016821F00101016001203DB1042D40
:102FA00008D0082D09D084F84100002030BD84F8F5
:102FB0003E00FAE784F83F00F7E784F84000F4E7C2
:102FC000002C014010B504460068B0F1804F01D1DB
:102FD000FFF750F904492068884203D1BDE810404A
:102FE00006F0E4BB10BD000000080040704738B593
:102FF000044690F84200202801D0022038BD61B17B
:103000005AB10120206300206063204601F00CFCCF
:103010000028F3D1216B012901D0012038BD21689E
:103020000A684968009121680C3151E8002F42F08C
:10303000100241E80023002BF5D138BD18B5034636
:1030400090F84200202801D0022018BD61B15AB189
:103050000120186300205863184601F02DFC002859
:10306000F3D1196B012901D0012018BD19680A6834
:103070004968009119680C3151E8002F42F01002A4
:1030800041E80024002CF5D118BD000070B50446BD
:1030900008480D46844204D106F04EFA284606F050
:1030A0004BF80548844204D12846BDE8704006F03C
:1030B00053BC70BD18020020A80200207047000019
:1030C000F8B5016804460868CA684B6910F00F0F2C
:1030D0004FF0000559D003F0010602F49077374312
:1030E00065D0C10705D0D10503D5616C41F0010160
:1030F0006164410705D5D90703D0616C41F0020135
:103100006164810705D5D90703D0616C41F00401E2
:103110006164010707D502F02001314303D0616CDF
:1031200041F008016164616C00293AD0800604D541
:10313000900602D5204601F0B9FA20684069616C1A
:10314000C0F38010090700D460B3204601F079FA7B
:1031500020684069400621D52068143050E8001FDF
:1031600021F0400140E80012002AF5D1E06BA8B13F
:103170006D494163E06BFEF76BFA002811D0E06BFC
:10318000416B01B0BDE8F040084783060FD59306B8
:103190000DD52046BDE8F84001F088BA2046FFF77B
:1031A0008DFFF8BD2046FFF789FF6564F8BD266BEB
:1031B0002023012E7CD1C6067AD5D60678D508689C
:1031C0004868009048694FF00206400640D5E16B20
:1031D000086840680004000CE8D0A28D8242E5D95E
:1031E000E085886920282DD020680C3050E8001F29
:1031F00021F4807140E80012002AF5D120681430D3
:1032000050E8001F21F0010140E80012002AF5D12A
:103210002068143050E8001F21F0400140E80012FF
:10322000002AF5D184F84230256320680C3050E83C
:10323000001F21F0100140E80012002AF5D1E06BD8
:10324000FEF7E2F96663A08DE18D401A81B22AE0B3
:10325000A08DE18D401A81B2E08D0028A6D0002912
:10326000A4D022680C3252E8000F20F4907042E89B
:103270000007002FF5D12068143050E8002F22F00D
:10328000010240E80027002FF5D184F84230256381
:1032900020680C3050E8002F22F0100240E8002394
:1032A000002BF5D166632046FFF7F0FEF8BDFFE77F
:1032B00005062BD5150629D594F841002128F5D10E
:1032C000A068B0F5805F01D12069B0B1206A411CCF
:1032D0002162216800784860E08C401E0004000CE8
:1032E000E084E3D12068C16821F08001C1602068DA
:1032F000C16841F04001C160D8E7206A0088C0F38E
:1033000008004860206A801C2062E5E74006CDD5B1
:103310005006CBD5CA68204622F04002CA6084F825
:10332000413000F083F9C1E7F944000870B50400AA
:1033300004D094F84100002510B106E0012070BDD2
:1033400084F84050204600F023F8242084F84100FF
:103350002068C16821F40051C160204601F008FADC
:103360002068016921F4904101612068416921F0E0
:103370002A0141612068C16841F40051C16065645F
:10338000202084F8410084F842006563002070BD6D
:10339000F0B585B00024009401940294039406468D
:1033A00003685548DFF84CC102210322534D07152D
:1033B000634525D1836943F480438361836903F4C2
:1033C00080430493836943F004038361806903921B
:1033D00000F0040004900802CDE900016946284687
:1033E000FEF798FBCDE90074694628460294FEF783
:1033F00091FB00220A212520FEF7D4FF252076E04C
:10340000DFF8FCC0634521D1C36943F40033C361D5
:10341000C36903F400330493836943F004038361B5
:103420008069039200F0040004900420CDE90001BB
:1034300069462846FEF76EFB0820CDE90004694680
:1034400028460294FEF766FB05B0F0BD2D4DAB4259
:10345000FAD1C36943F48023C361C36903F48023B1
:103460000493836943F0080383618069CDE90071A7
:1034700000F00800CDE90320234D69462846FEF7F9
:1034800049FBE814CDE90004694628460294FEF79A
:1034900041FB1F4D1D488027C5E90004C5E90247CF
:1034A0002C616C61AC612846EC61FEF7C7F908B18C
:1034B000FEF71EF8F5636E62154D14484435143856
:1034C00001C5102091C5124845F8104944306C617F
:1034D000AC61EC61FEF7B2F908B1FEF709F8B5632B
:1034E00000220A2127206E62FEF75CFF2720FEF7EC
:1034F0004BFFA9E7003801400010024000080140DE
:103500000044004000480040000C014030000240F0
:10351000F0020020704770472DE9F843044690F808
:1035200041001F4616460D46202802D00220BDE865
:10353000F8837DB176B100206064212084F84100D9
:10354000FEF7E2FBA6848046E684A068B0F5805FC3
:1035500002D003E00120EAE7206910B12E460025E1
:103560000EE000260CE08021204601F0C0F9A0B951
:10357000AEB116F8010B21684860E08C401EE08473
:10358000E08C43464FF0000200970028EBD14FF04B
:103590004001204601F0ABF930B10320C7E735F810
:1035A000020BC0F30800E6E7202084F84100002069
:1035B000BDE7000070B5044690F84100202801D016
:1035C000022070BD49B342B32162A284E28400208C
:1035D0006064212384F84130A56B114BAB62A56B6D
:1035E000104BEB62A56B104B2B63A36B58632568E4
:1035F00013462A1DA06BFEF74FF921686FF04000BB
:1036000008602068143050E8001F41F0800140E855
:103610000012002AF5D1002070BD012070BD00000D
:10362000F74500083946000809450008704770470B
:10363000FEE701684A69D24352050FD46FF48062F5
:103640004A61002140F8301F2022427381730269D1
:1036500042F00402026101730120704700207047AC
:103660002DE9F84F0446C06A1E4693460D46216870
:103670000A6842F480620A60082807D0012805D051
:1036800010F5803F02D0206B112804D1206801681A
:1036900041F4807101604FF001195B4600224946F8
:1036A0002046009600F0CCF84FF4007840B1206836
:1036B0000068C00501D5C4F840800320BDE8F88F3C
:1036C0002069DFF884A0B0F5804F0FD00620216874
:1036D00000EAD51747F0F000086133465A460AF170
:1036E0000601204600F0F4F858BB03E0E8B240F0D1
:1036F00001001CE02168E8B2086133465A46514691
:10370000204600F0E5F8E0B9206841698169009140
:10371000016841F4807101605B4600224946204601
:10372000009600F08DF80028C1D147F0F100216823
:10373000086133465A465146204600F0C9F8002831
:10374000BCD00120BAE7000002000100F8B5044631
:10375000C06A1E460D461746082807D0012805D026
:1037600010F5803F02D0206B122804D12068016838
:1037700041F480710160134600224FF00111204690
:10378000009600F05DF840B120680068C00502D5E1
:103790004FF4007020640320F8BD2069B0F5804F1D
:1037A0000ED00620216800EAD51040F0F000086134
:1037B00033463A460B49204600F08AF878B902E0D1
:1037C00005F0FE0000E0E8B22168086105493346D3
:1037D0003A46891F204600F07BF80028DCD0012003
:1037E000F8BD00000800010070B516460D460446FD
:1037F0001EE02046FFF71DFF08B1012070BD681CC8
:1038000016D0FEF781FA801BA84200D885B920683F
:103810004069C04340070BD5002044F8300F2021F9
:103820006173A073216941F0200121612073E4E7F5
:1038300020684069C0434007DBD4002070BD000011
:103840002DE9F047984617460D460446C1F3074652
:10385000DDF820902AE000BFB8F1FF3F26D0FEF748
:1038600053FAA0EB0901414502D8B8F1000F1DD170
:103870002068012E16D0806925EA00000004000CA3
:1038800012D00020B84211D1002044F8300F20217E
:103890006173A073216941F020012161207301202F
:1038A000BDE8F0874069E7E70120EBE72068012EDB
:1038B0000AD0806925EA00000004000C06D0002030
:1038C000B842C9D00020EBE74069F3E70120F7E7F1
:1038D0002DE9F047984616460D4604464FF000097C
:1038E0004FF0200AC1F3074723E020684069C04336
:1038F000400515D42068016841F400710160216819
:103900006FF480604861C4F8309084F83DA084F87A
:103910003E90216C41F00401216484F83C9021E048
:10392000701C06D0FEF7F0F9A0EB0800B04203D8F7
:1039300016B1012F1FD021E02068012F15D080691A
:1039400025EA00000004000C18D000BF44F8309FA6
:1039500084F80DA084F80E90216941F020012161C6
:1039600084F80C900120BDE8F087406925EA00004A
:103970000004000CEAD12068406901E020688069F9
:1039800025EA00000004000CAFD1ECE72DE9F0417E
:10399000002590460E460446202728E04069C04393
:1039A000C0060CD454F8301B6FF01000486144F886
:1039B00010596777A577206A2062257714E0FEF713
:1039C000A3F9A0EB0800B04200D886B9206840698E
:1039D000C04340060BD544F8305F6773A573206978
:1039E00040F02000206125730120BDE8F0812068AF
:1039F0004169C9434906D1D40020F6E770B516469F
:103A00000D4604461EE02046FFF713FE08B10120D4
:103A100070BD681C16D0FEF777F9801BA84200D84D
:103A200085B920684069C04300060BD5002044F8E2
:103A3000300F20216173A073216941F020012161C1
:103A40002073E4E720684069C0430006DBD400200F
:103A500070BD2DE9FC5F8046DDE90EA00024CDE9B4
:103A60000004994617460E462546DDF834B06846F0
:103A700005F02EFA60F30704200903282CD1C4F3C3
:103A8000C00188F80010C4F34100306004F0010068
:103A9000387001A9009800F03DF8009905460844E7
:103AA000019900904418224669460C9805F01FFAC7
:103AB00090B10098201A0FD43068002804DD6846C1
:103AC00005F00CFAA9F800000098211ACAF80010B5
:103AD00000990125CBF800102846BDE8FC9FF8B5F9
:103AE000012500240E4607460C60641C042C0FDCE4
:103AF00001216846B84701280AD19DF800003168C5
:103B000000F07F0202FB0511ED0131600006ECD4EC
:103B10002046F8BD024A10600248FFF7E0BF0000EF
:103B20000C010020AD55000810B503460020CA174F
:103B300001EB526424F07F02891ACAB2E111002914
:103B400002DD00BF42F080021A5400F10100EEDCF9
:103B500010BD0000401C802801DA401C7047B0F501
:103B6000804F01DA801C70470349884201DAC01C8B
:103B70007047001D70470000FFFF1F002DE9F8434C
:103B800000248846164605464FF0FF370121009471
:103B9000B047012816D169463046FFF7A0FF681CE0
:103BA0000099FFF7C1FF0099401C0B18434509DC41
:103BB00021B12844B0470099884203D1287860F3A6
:103BC000070427093846BDE8F88300002DE9F843CB
:103BD00007460090884614460025104600F082F8FB
:103BE0008146FFF7B7FF404502DDA81EBDE8F88318
:103BF0002E46314666F307016846103106F00AFC8E
:103C000049460098FFF790FF009908440090207AF9
:103C100004281DD02FA1684606F0E8FB0321684662
:103C200006F0F8FBA07E66F3070560F34105E07E31
:103C300008B145F00405680707D594F83D0060F326
:103C4000C40594F83C0060F34515206C40B905E0CC
:103C500022A1684606F0CAFB0421E0E7A06C08B187
:103C600045F08005E06C08B9606D08B145F040058D
:103C70002946684606F0CEFB218B684606F0D0FB4D
:103C800004F10C0168460EC906F0D9FBE07E68B16C
:103C90002434684694E80E00243C06F0D0FB30340F
:103CA000684694E80E00303C06F0C9FB280605D5AE
:103CB00004F1400168460EC906F0C1FB680605D54F
:103CC0004C34684694E80E0006F0B9FB0098C01B1F
:103CD0008CE700004D514973647000004D515454FD
:103CE0000000000070B50446007A0025032802D0C9
:103CF000042802D002E00C2500E00A2504F10C00A3
:103D000007C800F0DAF80544E07EAD1C78B1243431
:103D100094E80700243C00F0D0F83034064694E8DC
:103D20000700303C00F0C9F8304405442D1D206CDC
:103D300008B9A16C29B1D4E9111200F0BEF805440C
:103D4000AD1CE06C08B9616D29B1D4E9141200F022
:103D5000B4F80544AD1C284670BD2DE9FC5F1C4637
:103D6000129ECDE90060DDF838B09046DDF830A055
:103D7000DDE90F23894607465946204600F030F812
:103D80000546FFF7E7FE484503DD6FF00100BDE89B
:103D9000FC9F302168F3C30164F342016AF3000120
:103DA00001A806F037FB29460198FFF7BDFE0199EF
:103DB00008440190DDE90F23594601A806F03FFBB6
:103DC000002C03DD01A80D9906F02AFB324611995B
:103DD0000198FCF70FFA019830440190C01BD6E718
:103DE00070B50E46114604461A463046049D00F052
:103DF00064F82844801C002C00DD801C70BD00008D
:103E00002DE9FF4F83B0064610A8894690E8800947
:103E100000249246254641463846009600F036F882
:103E20000190FFF797FE484503DDA01E07B0BDE8EF
:103E3000F08F64F3070480346AF3C30424F00600AF
:103E4000801CC1B2684606F0E5FADDE90001FFF723
:103E50006BFE0099084400906846069906F0E0FA67
:103E60000FE000BF05EB450108EB810090E80E0074
:103E7000684606F0E4FA1BF82510684606F0CAFA10
:103E80006D1CBD42EEDB0098801BCFE72DE9F041B1
:103E900002250F46064600240AE000BF04EB44005A
:103EA00007EB800007C800F008F80544641CED1C0F
:103EB000B442F3DB2846BDE8F08110B510B1FCF741
:103EC000DBF90146084610BD0D4808B5416941F0CF
:103ED000010141614069002200F0010000900521CC
:103EE0000C20FEF75FFA0C20FEF74EFA00220521A7
:103EF0000D20FEF757FABDE808400D20FEF744BA42
:103F00000010024010B501F063FD064A002106488A
:103F100003F0E2FA0549086005F00CFCBDE810402A
:103F200005F05CBA38AE0008C94100080000002066
:103F300030B585B000242548009401940294039480
:103F4000816941F010018161816901F010010491E2
:103F5000816941F020018161816901F020010491B2
:103F6000816941F004018161816901F004010491DA
:103F7000816941F0080181618069154D00F00800F8
:103F800004900022C1212846FDF7B9FEC12000900F
:103F90000120CDE901040220039069462846FDF77F
:103FA000B9FD4FF4004000900A48CDE9010469468C
:103FB0002846FDF7AFFD00220A212820FEF7F2F97E
:103FC0002820FEF7E1F905B030BD000000100240E6
:103FD00000080140000011100D4810B50B490160A8
:103FE0000C49416000214FF480428160C0E9031216
:103FF00041618161C1610162FDF78CFE002803D03F
:10400000BDE81040FDF774BA10BD00000054004038
:1040100034010020A086010010B58EB00024079462
:10402000089409940A940B941C2168460C94FCF79C
:10403000FAF81F481D4901604721C0E9011440F208
:10404000E731C0E903148461FEF7B2FC08B1FDF763
:104050004FFA4FF48050079007A91548FEF744FD2A
:1040600008B1FDF745FA1248FEF7F7FE08B1FDF773
:104070003FFA0B940BA90E480C94FEF765FC08B1AF
:10408000FDF736FA6020CDE90004022002900022FC
:10409000694604940648FEF77AFE08B1FDF728FA4F
:1040A0000348FEF743FE0EB010BD000000040040C0
:1040B0008801002010B586B00024174800940194B0
:1040C00002940394049413490594016041F61F413E
:1040D000C0E901144CF24F31C0E903148461FEF7CA
:1040E00067FC08B1FDF704FA4FF480500090694670
:1040F0000948FEF7F9FC08B1FDF7FAF9049404A9A0
:1041000005480594FEF720FC002801D0FDF7F0F9E2
:1041100006B010BD00080040D00100200C4810B5CA
:104120000A4901604FF4E1314160002181600C22B5
:10413000C160C0E904128161C161FFF7F7F800288E
:1041400003D0BDE81040FDF7D3B910BD00380140E1
:10415000180200200C4810B50A4901604FF41651AE
:104160004160002181600C22C160C0E904128161BC
:10417000C161FFF7DBF8002803D0BDE81040FDF770
:10418000B7B910BD00440040600200200C4810B5D3
:104190000A4901604FF4E1314160002181600C2245
:1041A000C160C0E904128161C161FFF7BFF8002856
:1041B00003D0BDE81040FDF79BB910BD004800409A
:1041C000A8020020FEE7FEE705F00EFCFEE7000077
:1041D00010B5502080F31188BFF34F8FBFF36F8F5E
:1041E00006F088FC18B104494FF0805008600020A8
:1041F00080F3118810BD000004ED00E030B58FB0F1
:1042000028216846FCF70FF814210AA8FCF70BF8E0
:1042100001210804CDE90010002402940225049134
:10422000CDE907504FF4E01009906846FEF7FAF91F
:1042300008B172B6FEE70F20CDE90A054FF48060A1
:10424000CDE90C4002210AA80E94FEF7EFF80028F1
:1042500001D072B6FEE70FB030BD70470148FEF7DF
:10426000B2BC0000780300200148FEF7ACBC00009F
:10427000D0010020F0B50268164B174C174D4FF0D7
:104280008047984205D0B84203D0A04201D0A8424E
:1042900003D122F070064A683243984205D0B842F2
:1042A00003D0A04201D0A84203D122F44074CA68CE
:1042B00022434C6922F08002224302608A68C26273
:1042C0000A688262984201D1096901630121416152
:1042D000F0BD0000002C0140000400400008004038
:1042E00010B501F01F030121046A99408C43046258
:1042F000016A9A401143016210BD10B5846842EA18
:10430000032224F47F440A432243826010BD826862
:1043100022F070020A4342F00701816070470000FA
:1043200030B5036A026A22F00102026242688469BF
:1043300024F073050C682C4323F002058B682B4393
:104340000A4DA8420BD123F00805CB6822F4407235
:104350002B434D6923F0040315438A692A434260C5
:10436000846149684163036230BD0000002C014054
:1043700030B5026A036A23F010030362436884695C
:104380000D6824F4E64444EA05248D6822F02002F6
:1043900042EA05120B4DA8420ED1CD6822F08002F0
:1043A00042EA05124D6923F4406343EA85038D69AF
:1043B00022F0400243EA85034360846149688163D7
:1043C000026230BD002C014030B5036A026A22F45B
:1043D000807202624268C46923F4007324F073059A
:1043E0000C682C438D6843EA05230C4DA8420ED17E
:1043F000CD6823F4006343EA05234D6922F440525B
:1044000042EA05128D6923F4806342EA0512426094
:10441000C4614968C163036230BD0000002C0140E3
:1044200030B5046A026A22F4805202624268C369AB
:104430000D6823F4E64343EA05238D6824F4005411
:1044400044EA0534064DA84204D14D6922F4804265
:1044500042EA85124260C36149680164046230BD6A
:10446000002C014010B5036A046A24F001040462C0
:10447000846924F0F00444EA021423F00A020A4397
:104480008461026210BD10B5036A046A24F010044E
:104490000462846923F0A00324F4704444EA0232E5
:1044A00043EA01118261016210BD000008B50246B5
:1044B0004FF0FF310748009102233C210068FDF7CF
:1044C00015FE002804D0BDE8084003A000F05ABA49
:1044D00008BD0000F40000205472616E736D6974B1
:1044E0005F6932635F64617461206661696C7572D3
:1044F000652E0D0A0000000010B5406A0021C1853C
:10450000C184FEF7DBFD10BD70B5446A20684069C8
:1045100094F84110C0F3C0100025212904D118B12E
:10452000E584204600F0B4F82068406994F8421011
:10453000C0F38010222904D118B1E585204600F08F
:1045400080F8606C40F0100060642046FEF7B6FD15
:1045500070BD10B50146406A096809684FF0000255
:1045600089062ED4C28501680C3151E8003F23F43E
:10457000807341E80034002CF5D10168143151E812
:10458000003F23F0010341E80034002CF5D101681D
:10459000143151E8003F23F0400341E80034002C7F
:1045A000F5D1202180F84210016B012909D1016861
:1045B0000C3151E8003F23F0100341E80034002C97
:1045C000F5D14263016B012902D0FEF7A3FF10BDB4
:1045D000818DFEF75BFD10BD10B5406A012141637E
:1045E000016B012902D0FEF796FF10BD818D4908AD
:1045F000FEF74CFD10BD10B50146406A0968096818
:10460000890616D40021C1840168143151E8002FB5
:1046100022F0800241E80023002BF5D101680C3123
:1046200051E8002F42F0400241E80023002BF5D171
:1046300010BDFEF7FBFF10BD10B5406AFEF7F7FF97
:1046400010BD01680C3151E8002F22F4907241E84E
:104650000023002BF5D10168143151E8002F22F01E
:10466000010241E80023002BF5D1016B012909D19A
:1046700001680C3151E8002F22F0100241E80023BC
:10468000002BF5D1202180F84210002101637047F2
:1046900001680C3151E8002F22F0C00241E80023EC
:1046A000002BF5D1202180F84110704708B590F813
:1046B0004210222901D0022008BD82684FF48053A5
:1046C0009A4201D1016921B1816A9A421BD04AB153
:1046D0000AE00268816A5268C2F308020A80816AAD
:1046E000891C08E0026972B10268526802F07F0218
:1046F0000A70816A491C8162C18D491E0904090C36
:10470000C18503D01BE002685268F1E70168CA68FE
:1047100022F02002CA600168CA6822F48072CA606E
:1047200001684A6922F001024A61202180F84210A2
:1047300000214163026B012A03D0FEF7EBFE00204B
:1047400008BD016301680C3151E8002F22F010020E
:1047500041E80023002BF5D101680A68D20602D592
:104760000A6849680091818DFEF790FCE7E7000038
:1047700070B5044600680169E26821F440511143B4
:1047800001612169A0680843616908432168CA681A
:1047900041F20C639A430243CA6020684169A269EE
:1047A00021F44071114341611E492068884202D1C1
:1047B000FDF702FF01E0FDF7EFFE00EBC00101EBAA
:1047C0000012606864218000B2FBF0F3B3FBF1F3E8
:1047D0006FF018067343B2FBF0F5B2FBF0F605EB91
:1047E0008305322303EB0515B5FBF1F5B6FBF1F6B6
:1047F00005F0F00505EB0615B2FBF0F6B2FBF0F0A4
:10480000B0FBF1F06FF01802504306EB800003EBB1
:104810000010B0FBF1F0216800F00F002844886020
:1048200070BD00000038014038B5816204468285C1
:10483000002013466064222284F84220E56B1B4A64
:10484000AA62E56B1A4AEA62E56B1A4A2A63E26BCE
:1048500050630A462168E06B091DFDF71DF82068CA
:10486000016840680090206948B120680C3050E829
:10487000001F41F4807140E80012002AF5D1206841
:10488000143050E8001F41F0010140E80012002AF6
:10489000F5D12068143050E8001F41F0400140E895
:1048A0000012002AF5D1002038BD00005345000851
:1048B000D94500080945000881628285C28500212A
:1048C0004164222180F84210016921B10168CA685F
:1048D00042F48072CA6001684A6942F001024A618A
:1048E0000068C16841F02001C160002070472DE9D7
:1048F000F041984617460E460446069D27E0681C80
:1049000025D02DB1FDF700FAA0EB0800A8421ED972
:1049100020680C3050E8001F21F4D07140E80012EC
:10492000002AF5D12068143050E8001F21F0010161
:1049300040E80012002AF5D1202084F8410084F8D4
:104940004200002084F840000320BDE8F081206888
:10495000006836EA000004D00020B842CFD0002022
:10496000F3E70120F9E700000148FEF7A9BB0000CA
:10497000180200200148FEF7A3BB0000A802002097
:10498000FEE700000FB4054B10B503A9044A0298D6
:1049900000F07AF910BC5DF814FB00001168000803
:1049A000240100200FB47CB50C0009AD01D0611EBC
:1049B00000E00021CDE90001064B6A46294608982F
:1049C00000F062F9002C02D0009A002111707CBC2A
:1049D0005DF814FB8F5300080FB4084B10B504A901
:1049E00002AA039800F050F9044602A9002000F042
:1049F000D9FC204610BC5DF814FB0000A55300084C
:104A00000907090E002804DB00F1E02080F80014FB
:104A1000704700F00F0000F1E02080F8141D70478F
:104A2000004870473001002030B528B1144C031FF6
:104A3000002021680A4605E0084630BD9A4203D8A6
:104A400010465268002AF9D1002800D041680BD0E6
:104A50000468A3EB0005A54204D11B681C4403466F
:104A6000046002E0436000E023603AB11C68D51A9C
:104A7000A54203D115682C441C6052685A6030BDB1
:104A8000280100202DE9F04782460F4C10480D4EBA
:104A90000E4F001B4FF0000820F007054FF00109F2
:104AA00000221146504601F043FF002802D1306831
:104AB00010B10020BDE8F0873C60C4E90058C6F89A
:104AC0000090EDE72C0100202C2B00202801002075
:104AD0002833002002E008C8121F08C1002AFAD1BA
:104AE00070477047002001E001C1121F002AFBD16E
:104AF000704700002DE9FF5F82B00021DDE904303E
:104B0000020DDDF840B0034318D044F61050A2F275
:104B1000FF3242431514119801281FD0A5EB0B005A
:104B2000401C5FEA000A4FF000064E4FDFF8389154
:104B3000B046504615D5CAF1000413E0119801247F
:104B40004AA3012801D16FEA0B010298119AC0E92A
:104B50000031C0E9024206B0BDE8F09FCBF1000091
:104B6000DFE704460021404A491842EB0450CDE9F2
:104B7000001012E0E00707D032463B464046494667
:104B8000FCF7EDF88046894632463B46104619460A
:104B9000FCF7E5F806460F466410002CEAD1DDE983
:104BA0000401DDE90023BAF1000F06DAFCF7D7F8BB
:104BB00042464B46FCF7D3F805E0FCF742F9424683
:104BC0004B46FCF73EF904460E460022284BFBF705
:104BD00009FF03D84FF0FF30014607E00022254BC4
:104BE00020463146FBF7EAFDFCF7A6F9102409E060
:104BF000002C0ADB0A220023FBF722FF039B303242
:104C00001A55641E50EA0102F2D1641C039AC4F1E1
:104C100011031444119A012A03D0012208430DD133
:104C20000AE0084304D000204FF0110B119072E706
:104C3000A3EB0B056D1E0DE05B4504DD4FF000029C
:104C400005F1010504E003DA4FF00002A5F10105CA
:104C5000002AECD002981199C0E90231C0E9004560
:104C600079E70000000014400000F03F3000000031
:104C70000000F0430000E03F30380A2801D2012054
:104C800070470020704700002DE9FF4F95B09A460D
:104C9000884606460025EEE1252877D100242746E0
:104CA000F94A0121039400E0044316F8013F203B38
:104CB00001FA03F01042F7D130782A2811D06FF0B2
:104CC0002F033078A0F13002092A16D8039A44F055
:104CD000020402EB820203EB42021044761C0390B2
:104CE000EFE758F8042B0392002A03DA504244F409
:104CF0000054039044F00204761C30782E2816D11C
:104D000016F8010F44F004042A280DD06FF02F028A
:104D10003078A0F13003092B09D807EB870302EBA9
:104D20004303C718761CF3E758F8047B761C3078E9
:104D30006C280FD006DC4C2817D068280DD06A28C4
:104D400014D104E0742810D07A280FD10DE044F477
:104D500000140AE044F4801401E044F44014727832
:104D6000824202D104F58014761C761C30786628C5
:104D70000BD013DC582877D009DC002875D04528E3
:104D8000F6D04628F4D047281AD193E118E06328DA
:104D900035D0642879D0652812D18BE1702873D082
:104DA00008DC6728F1D069286FD06E280DD06F28F5
:104DB00006D1ACE073282CD0752874D0782853D055
:104DC0005246179990476D1C54E1C4F302500228D3
:104DD00009D003280DD0D8F8001004280DD00D609C
:104DE00008F1040846E1D8F80010EA17C1E90052BA
:104DF000F6E7D8F800100D80F2E70D70F0E718F82C
:104E0000041B8DF8001000208DF80100EB460120F6
:104E100003E058F804BB4FF0FF3061074FF000018A
:104E200002D40DE009F101018946B9420FDA81454A
:104E3000F8DB1BF809100029F4D108E009F10101A1
:104E400089468142FADB1BF809100029F6D1039844
:104E50005346A0EB090721463846179A00F080FA1E
:104E6000284400EB090507E044E008E10DE01BF8E9
:104E7000010B524617999047B9F10109F7D25346F1
:104E800021463846179AF2E039E00A21C4F302526B
:104E90004FF0000B0091022A06D058F8040BC117FE
:104EA000032A09D00AE023E008F1070020F00702F6
:104EB000F2E80201904605E000B2C117042A01D1D0
:104EC00040B2C117002906DA0A460021404261EBD0
:104ED00002012D2202E0220504D52B228DF80420A8
:104EE000012203E0E20701D02022F7E7914657E0D4
:104EF0000A2100E010214FF0000B00910BE010217F
:104F00004FF0000B44F004040827009103E0082050
:104F10004FF0000B0090C4F30252022A05D058F85B
:104F2000040B0021032A08D008E008F1070020F054
:104F30000702F2E80201904603E080B2042A00D1A1
:104F4000C0B24FF0000922072AD53278702A07D064
:104F5000DDF800C08CF0100C5CEA0B0C05D00EE004
:104F600040228DF80420012208E050EA010306D017
:104F700030238DF804308DF8052002229146009BE5
:104F800083F0080353EA0B030AD150EA010201D16E
:104F9000620705D530228DF804204FF001097F1EED
:104FA0003278582A04D039A20C920CAA02920BE053
:104FB0003BA2F9E75B46009AFBF742FD0C9B9B5C2A
:104FC000029A521E0292137050EA0102F2D1029824
:104FD00004A9081A00F1200B600702D524F48034DC
:104FE00000E001275F4502DDA7EB0B0000E0002099
:104FF00000EB0B01009003984944401A0390E00332
:1050000006D453462146179A039800F0A9F905449F
:10501000002706E001A85246C05D179990476D1C15
:105020007F1C4F45F6DBE0030CD553462146179A0B
:10503000039800F095F9054404E030205246179992
:1050400090476D1C0099481E00900029F5DC08E08F
:105050000298029952460078491C0291179990478C
:105060006D1CBBF10001ABF1010BF1DC5BE100F069
:1050700065F90544761C307800287FF40DAE19B030
:105080002846BDE8F08F0000092801003031323396
:105090003435363738396162636465660000000074
:1050A000303132333435363738394142434445465E
:1050B00000000000600700D4062708F1070020F078
:1050C0000700F0E80223804603F0004C5FEA0C0082
:1050D00001D097A009E0200501D596A005E0E007E2
:1050E00001D095A001E0AFF24C001390307823F08E
:1050F000004365280CD006DC452809D046281DD081
:1051000047287FD13BE0662818D067287AD136E05F
:105110000021112F01DB112000E0781CCDE90001F6
:1051200004A90CA8FFF7E6FCDDE90D010C9A4FF08D
:10513000000B07F10109109200914EE04FF0004082
:105140000097CDE9011004A90CA8FFF7D3FCDDE915
:105150000D020C9B0F994FF0000B9146109300929B
:1051600011B9791C00EB0109B7EB090003D4C0F1B8
:10517000FF3B07F10109A9EB0700019042E0012F75
:1051800000DA01270021112F01DD112000E038464F
:10519000CDE9000104A90CA8FFF7ACFCDDE90D0185
:1051A0000C9A00914FF0000BB946109221070FD4D2
:1051B000009A4A4503DA914601E0A9F10109B9F1E3
:1051C000010F05DD109AA9F10101515C3029F4D0DD
:1051D000B84202DA10F1040F03DA0121CDE901101F
:1051E00010E0002803DC8344A9EB000102E0411C2D
:1051F000494500DD8946A0EB0B00401C01904FF0B3
:1052000000400290200705D40198484502DB4FF08A
:10521000FF30019000208DF84B0002980DF14B07F4
:10522000B0F1004F25D002200C902B200D90029859
:1052300000280CDA404202902D200D9007E00A2150
:105240000298FBF7E7FB3031029007F8011D0C993B
:10525000481E0C900029F2DC02980028EFD1791E3C
:105260000D980870307800F0200040F0450007F8F5
:10527000020D11A8C01BC01D02901398007800B148
:10528000012000EB0901019801EBE0710298014453
:105290000398401A401E0390E00306D4534621466B
:1052A000179A039800F05CF805441398007818B139
:1052B0005246179990476D1CE00323D5534621466B
:1052C000179A039800F04CF805441BE0BBF1000F5F
:1052D00007DB0098584504DD1098179910F80B006B
:1052E00001E0179930205246904701980BF1010BCD
:1052F000401E05F10105019004D12E205246179958
:1053000090476D1CB9F10001A9F10109DEDC05E04F
:1053100017F8010B5246179990476D1C0299481EC9
:1053200002900029F4DC53462146179A03989EE622
:105330002D0000002B000000200000002DE9F041AE
:10534000044600251E461746880404D405E0394665
:105350002020B0476D1C641EF9D52846BDE8F081B9
:105360002DE9F041044600251E469046C80301D5AC
:10537000302700E02027880404D505E04146384660
:10538000B0476D1C641EF9D52846BDE8F0814A6817
:10539000002A06D00A68531C0B6010704868401E33
:1053A000486070470A68531C0B601070704700001B
:1053B0002DE9F843054690F80B800220A871B1F85A
:1053C00001000E4644BAA71DB8B2FAF7E9FEA5F8E7
:1053D0000700002068723078A8727078E872B078A0
:1053E0002873002004E03118CA782918401C4A7339
:1053F000A042F8DB04F10D06B2B2294614A004F075
:105400007BF8B1B2284601F0DFFA2919020A4A7383
:1054100088730F34A2B2294612A004F06DF82888D0
:1054200000BAA0F52B41CD390DD02846FAF724FF5C
:1054300081B215A0009000234246284601F010FCDE
:105440000020BDE8F883B9B2284603F057FFF7E71C
:105450007072655F70726F746F636F6C5F706163A1
:105460006B65740061636B5F636F72726563745F19
:1054700070726F746F636F6C5F7061636B65745F84
:10548000636F6E6E65637400000000003EB56C468D
:105490004AF6CD30FAF784FEADF800004FF0F03058
:1054A00000BACDF8020002258DF806500320FAF765
:1054B00077FEADF807008DF809500A21204601F06B
:1054C00083FA010A8DF80A108DF80B000C22214690
:1054D00003A004F011F80C21204603F00FFF3EBD9D
:1054E000646174610000000011B108B1884201D10B
:1054F0000020704782683AB152681AB111604A6060
:10550000806841600120704781600020C1E900018E
:10551000F8E72DE9F04106000698984614460D4636
:1055200021D005B3FCB1A6421DD018B1E06840F40B
:10553000007708E01946284600F0CAF9050012D0A5
:10554000E06820F40077A089800504D4206A10B1B7
:10555000D8F804108847E760214630462562BDE848
:10556000F041FFF7C1BF0020BDE8F0811CB50C4938
:105570000A4808600BA0006800906846FEF796FF96
:105580000F20FCF7C1F908A00068019001A8FEF700
:105590008DFF6420FCF7B8F900201CBD3401002009
:1055A000F4000020000400000003000030B50446B1
:1055B00006480023026803E012F8015B25705B1CBB
:1055C0008B42F9DB0260084630BD00000C01002070
:1055D00010B530B1036823B1D0E90121914201D265
:1055E00004E0002010BD491C816020B1914202D22C
:1055F0005C5C202CF7D99142F4D1491E816010BD2A
:1056000008B500230093024BFFF783FF08BD00009D
:1056100018010020F8B50C4605461046194600F062
:105620002BF8064600200090064B324621462846BD
:10563000FFF76FFF0028304602D100F071F800201C
:10564000F8BD000018010020F8B505460C461046CC
:1056500000F04EF8064600200090064B32462146E8
:105660002846FFF756FF0028304602D100F058F8D0
:105670000020F8BD1801002070B505460E461248FE
:1056800000F08AF804001CD00820E060C4E9065647
:105690000E4A0F4B28463146FBF7A4F902D86FF0AB
:1056A00000400DE000220B4B28463146FBF782F903
:1056B00002D84FF0004003E028463146FBF75AF984
:1056C0006061204670BD0000180100200000C0FF8E
:1056D000FFFFDF410000E0C110B5044800F05CF8B6
:1056E000002801D04021C16010BD00001801002039
:1056F00070B50546094800F04FF8040007D01020A7
:10570000E0600649284600F0E3F8206108B1204631
:1057100070BD204600F004F8002070BD1801002084
:105720002DE9F04104460027104E1BE0A0892568B2
:10573000C0050BD4A06820B1FFF7F2FFA089C00517
:1057400004D4206910B1716888472761A089800559
:1057500004D4206A10B171688847276271682046B6
:1057600088472C46002CE1D1BDE8F08118010020CB
:105770000248D0E9001008447047000010010020E2
:10578000002201F075B8002803D0007B102801D05A
:10579000002070470120704710B501682820884715
:1057A000040002D02821FAF73EFD204610BD002259
:1057B000114600F06FB800002DE9F04788B00F46A1
:1057C00004469A4616461C216846FAF72CFD2F48D7
:1057D0000025002C0560456055D08146E7B3CDE932
:1057E00000470295D9E90212D9F810000491CDE9D9
:1057F000052009F10800FFF7CFFF5FEA00082BD072
:1058000000986F4608B1029808B100270BE0019894
:10581000042808D903221EA10098FAF74BFD10B9FD
:105820000298C01C02903846FFF7D2FE014640465F
:1058300002F0D0FA68B1BAF1000F13D06846FFF752
:10584000C7FEDDE90101814203D202990098405C64
:1058500040B14046FFF764FFDDE9011088420AD2FB
:1058600005460BE01EB1029900980844306040469E
:1058700008B0BDE8F087081E00D0451E0EB16019C3
:105880003060C9E900450020F2E700001001002067
:10589000EFBBBF0070B515460E46040009D0FAF7FD
:1058A000EBFC411C2B4632462046BDE87040FFF71A
:1058B00083BF002070BD0000014A002102F008BB38
:1058C000180100200149496808470000180100201C
:1058D00070B50E4605000DD0FAF7CEFC401C3168BD
:1058E00004468847060005D022462946FAF782FC7E
:1058F000304670BD002070BD38B540F6B8350A4C52
:1059000005E02A466946206804F0B2FF28B1206805
:1059100004F08AF90028F4D138BD04A0FFF732F86A
:105920004FF0FF3038BD000000010020636C65615E
:105930006E5F7175657565206661696C7572652E3F
:105940000D0A000010B50021417081700A46012146
:105950000248FCF7D4F9002010BD00000008014007
:1059600010B50021417081700248FDF7A5FA0020B2
:1059700010BD0000880100202DE9F04798468946B7
:1059800023F0004621F000470546144633463946C9
:10599000FBF728F802D22846394601E02046314676
:1059A0006FF03302FAF7B1FF06460F462246434630
:1059B00028464946FAF7A3FF21F0004132463B460C
:1059C000FAF7F8FF02D80120BDE8F0870020FBE7D6
:1059D00010B54FF4007205490548FDF708FB05486E
:1059E0000068016821F00401016010BD2429002035
:1059F000A8020020F00200200A4610B5014608481F
:105A0000FDF7D8FD04464FF47A7004F067FA2CB124
:105A100004A0FEF7B7FF4FF0FF3010BD002010BD0F
:105A2000A802002048414C5F554152545F547261B6
:105A30006E736D69745F444D41206661696C757267
:105A4000652E0D0A0000000070B50446807A0D46F0
:105A500003280FD2E17A02290CD201EB4102064958
:105A600001EB820151F8201021B128468847A17A24
:105A7000297070BDFF2070BDAC00002070B50446D9
:105A8000807A0D4603280FD2E17A02290CD201EB6D
:105A90004102064901EB820151F8201021B128464C
:105AA0008847A17A297070BDFF2070BDDC000020FE
:105AB0002DE9F04104001CD02268D2B1636813B113
:105AC000A068984215D24FF00046B14211D2A568A5
:105AD000491C6818834202D35019BDE8F08121693E
